{
  "address": "0x4948d6b9d335504Bb8760106DF36D009C5821F18",
  "abi": [
    {
      "inputs": [
        {
          "internalType": "address",
          "name": "priceFeedAddress",
          "type": "address"
        }
      ],
      "stateMutability": "nonpayable",
      "type": "constructor"
    },
    {
      "inputs": [],
      "name": "FundMe__NotOwner",
      "type": "error"
    },
    {
      "stateMutability": "payable",
      "type": "fallback"
    },
    {
      "inputs": [],
      "name": "MINIMUM_USD",
      "outputs": [
        {
          "internalType": "uint256",
          "name": "",
          "type": "uint256"
        }
      ],
      "stateMutability": "view",
      "type": "function"
    },
    {
      "inputs": [],
      "name": "cheaperWithdraw",
      "outputs": [],
      "stateMutability": "payable",
      "type": "function"
    },
    {
      "inputs": [],
      "name": "fund",
      "outputs": [],
      "stateMutability": "payable",
      "type": "function"
    },
    {
      "inputs": [
        {
          "internalType": "address",
          "name": "funder",
          "type": "address"
        }
      ],
      "name": "getAddressToAmountFunded",
      "outputs": [
        {
          "internalType": "uint256",
          "name": "",
          "type": "uint256"
        }
      ],
      "stateMutability": "view",
      "type": "function"
    },
    {
      "inputs": [
        {
          "internalType": "uint256",
          "name": "index",
          "type": "uint256"
        }
      ],
      "name": "getFunder",
      "outputs": [
        {
          "internalType": "address",
          "name": "",
          "type": "address"
        }
      ],
      "stateMutability": "view",
      "type": "function"
    },
    {
      "inputs": [],
      "name": "getOwner",
      "outputs": [
        {
          "internalType": "address",
          "name": "",
          "type": "address"
        }
      ],
      "stateMutability": "view",
      "type": "function"
    },
    {
      "inputs": [],
      "name": "getPriceFeed",
      "outputs": [
        {
          "internalType": "contract AggregatorV3Interface",
          "name": "",
          "type": "address"
        }
      ],
      "stateMutability": "view",
      "type": "function"
    },
    {
      "inputs": [],
      "name": "i_owner",
      "outputs": [
        {
          "internalType": "address",
          "name": "",
          "type": "address"
        }
      ],
      "stateMutability": "view",
      "type": "function"
    },
    {
      "inputs": [
        {
          "internalType": "address",
          "name": "",
          "type": "address"
        }
      ],
      "name": "s_addressToAmountFunded",
      "outputs": [
        {
          "internalType": "uint256",
          "name": "",
          "type": "uint256"
        }
      ],
      "stateMutability": "view",
      "type": "function"
    },
    {
      "inputs": [
        {
          "internalType": "uint256",
          "name": "",
          "type": "uint256"
        }
      ],
      "name": "s_funders",
      "outputs": [
        {
          "internalType": "address",
          "name": "",
          "type": "address"
        }
      ],
      "stateMutability": "view",
      "type": "function"
    },
    {
      "inputs": [],
      "name": "s_priceFeed",
      "outputs": [
        {
          "internalType": "contract AggregatorV3Interface",
          "name": "",
          "type": "address"
        }
      ],
      "stateMutability": "view",
      "type": "function"
    },
    {
      "inputs": [],
      "name": "withdraw",
      "outputs": [],
      "stateMutability": "payable",
      "type": "function"
    },
    {
      "stateMutability": "payable",
      "type": "receive"
    }
  ],
  "transactionHash": "0x503b1b53d7a2c6519ac8287879d79b5d7c378b937e4b6533bb2447b4d46b22f5",
  "args": [
    "0x8A753747A1Fa494EC906cE90E9f37563A8AF630e"
  ],
  "numDeployments": 2,
  "solcInputHash": "b23f75280acb31f6e5f778f79bf3bf61",
  "bytecode": "0x60a06040523480156200001157600080fd5b506040516200148f3803806200148f833981810160405281019062000037919062000120565b3373ffffffffffffffffffffffffffffffffffffffff1660808173ffffffffffffffffffffffffffffffffffffffff1660601b8152505080600260006101000a81548173ffffffffffffffffffffffffffffffffffffffff021916908373ffffffffffffffffffffffffffffffffffffffff1602179055505062000152565b600080fd5b600073ffffffffffffffffffffffffffffffffffffffff82169050919050565b6000620000e882620000bb565b9050919050565b620000fa81620000db565b81146200010657600080fd5b50565b6000815190506200011a81620000ef565b92915050565b600060208284031215620001395762000138620000b6565b5b6000620001498482850162000109565b91505092915050565b60805160601c611309620001866000396000818161046f015281816106fd0152818161074d0152610a3901526113096000f3fe6080604052600436106100ab5760003560e01c8063893d20e811610064578063893d20e8146101db5780639e87a5cd14610206578063b60d428814610231578063be2693f01461023b578063d7b4750c14610245578063dba6335f14610282576100ba565b80630343fb25146100c45780630ec3b027146101015780631bf6132d1461012c5780633ccfd60b1461016957806354861af7146101735780636b69a592146101b0576100ba565b366100ba576100b86102ad565b005b6100c26102ad565b005b3480156100d057600080fd5b506100eb60048036038101906100e69190610c41565b6103e7565b6040516100f89190610c87565b60405180910390f35b34801561010d57600080fd5b5061011661042f565b6040516101239190610d01565b60405180910390f35b34801561013857600080fd5b50610153600480360381019061014e9190610c41565b610455565b6040516101609190610c87565b60405180910390f35b61017161046d565b005b34801561017f57600080fd5b5061019a60048036038101906101959190610d48565b6106ad565b6040516101a79190610d84565b60405180910390f35b3480156101bc57600080fd5b506101c56106ec565b6040516101d29190610c87565b60405180910390f35b3480156101e757600080fd5b506101f06106f9565b6040516101fd9190610d84565b60405180910390f35b34801561021257600080fd5b5061021b610721565b6040516102289190610d01565b60405180910390f35b6102396102ad565b005b61024361074b565b005b34801561025157600080fd5b5061026c60048036038101906102679190610d48565b6109ef565b6040516102799190610d84565b60405180910390f35b34801561028e57600080fd5b50610297610a37565b6040516102a49190610d84565b60405180910390f35b6802b5e3af16b18800006102ec600260009054906101000a900473ffffffffffffffffffffffffffffffffffffffff1634610a5b90919063ffffffff16565b101561032d576040517f08c379a000000000000000000000000000000000000000000000000000000000815260040161032490610dfc565b60405180910390fd5b346000803373ffffffffffffffffffffffffffffffffffffffff1673ffffffffffffffffffffffffffffffffffffffff168152602001908152602001600020600082825461037b9190610e4b565b925050819055506001339080600181540180825580915050600190039060005260206000200160009091909190916101000a81548173ffffffffffffffffffffffffffffffffffffffff021916908373ffffffffffffffffffffffffffffffffffffffff160217905550565b60008060008373ffffffffffffffffffffffffffffffffffffffff1673ffffffffffffffffffffffffffffffffffffffff168152602001908152602001600020549050919050565b600260009054906101000a900473ffffffffffffffffffffffffffffffffffffffff1681565b60006020528060005260406000206000915090505481565b7f000000000000000000000000000000000000000000000000000000000000000073ffffffffffffffffffffffffffffffffffffffff163373ffffffffffffffffffffffffffffffffffffffff16146104f2576040517f579610db00000000000000000000000000000000000000000000000000000000815260040160405180910390fd5b60005b60018054905081101561059d5760006001828154811061051857610517610ea1565b5b9060005260206000200160009054906101000a900473ffffffffffffffffffffffffffffffffffffffff16905060008060008373ffffffffffffffffffffffffffffffffffffffff1673ffffffffffffffffffffffffffffffffffffffff1681526020019081526020016000208190555050808061059590610ed0565b9150506104f5565b50600067ffffffffffffffff8111156105b9576105b8610f19565b5b6040519080825280602002602001820160405280156105e75781602001602082028036833780820191505090505b50600190805190602001906105fd929190610b37565b5060003373ffffffffffffffffffffffffffffffffffffffff164760405161062490610f79565b60006040518083038185875af1925050503d8060008114610661576040519150601f19603f3d011682016040523d82523d6000602084013e610666565b606091505b50509050806106aa576040517f08c379a00000000000000000000000000000000000000000000000000000000081526004016106a190610fda565b60405180910390fd5b50565b600181815481106106bd57600080fd5b906000526020600020016000915054906101000a900473ffffffffffffffffffffffffffffffffffffffff1681565b6802b5e3af16b188000081565b60007f0000000000000000000000000000000000000000000000000000000000000000905090565b6000600260009054906101000a900473ffffffffffffffffffffffffffffffffffffffff16905090565b7f000000000000000000000000000000000000000000000000000000000000000073ffffffffffffffffffffffffffffffffffffffff163373ffffffffffffffffffffffffffffffffffffffff16146107d0576040517f579610db00000000000000000000000000000000000000000000000000000000815260040160405180910390fd5b6000600180548060200260200160405190810160405280929190818152602001828054801561085457602002820191906000526020600020905b8160009054906101000a900473ffffffffffffffffffffffffffffffffffffffff1673ffffffffffffffffffffffffffffffffffffffff168152602001906001019080831161080a575b5050505050905060005b81518110156108de57600082828151811061087c5761087b610ea1565b5b6020026020010151905060008060008373ffffffffffffffffffffffffffffffffffffffff1673ffffffffffffffffffffffffffffffffffffffff168152602001908152602001600020819055505080806108d690610ed0565b91505061085e565b50600067ffffffffffffffff8111156108fa576108f9610f19565b5b6040519080825280602002602001820160405280156109285781602001602082028036833780820191505090505b506001908051906020019061093e929190610b37565b5060003373ffffffffffffffffffffffffffffffffffffffff164760405161096590610f79565b60006040518083038185875af1925050503d80600081146109a2576040519150601f19603f3d011682016040523d82523d6000602084013e6109a7565b606091505b50509050806109eb576040517f08c379a00000000000000000000000000000000000000000000000000000000081526004016109e290610fda565b60405180910390fd5b5050565b600060018281548110610a0557610a04610ea1565b5b9060005260206000200160009054906101000a900473ffffffffffffffffffffffffffffffffffffffff169050919050565b7f000000000000000000000000000000000000000000000000000000000000000081565b600080610a6783610a97565b90506000670de0b6b3a76400008583610a809190610ffa565b610a8a9190611083565b9050809250505092915050565b6000808273ffffffffffffffffffffffffffffffffffffffff1663feaf968c6040518163ffffffff1660e01b815260040160a06040518083038186803b158015610ae057600080fd5b505afa158015610af4573d6000803e3d6000fd5b505050506040513d601f19601f82011682018060405250810190610b189190611141565b5050509150506402540be40081610b2f91906111bc565b915050919050565b828054828255906000526020600020908101928215610bb0579160200282015b82811115610baf5782518260006101000a81548173ffffffffffffffffffffffffffffffffffffffff021916908373ffffffffffffffffffffffffffffffffffffffff16021790555091602001919060010190610b57565b5b509050610bbd9190610bc1565b5090565b5b80821115610bda576000816000905550600101610bc2565b5090565b600080fd5b600073ffffffffffffffffffffffffffffffffffffffff82169050919050565b6000610c0e82610be3565b9050919050565b610c1e81610c03565b8114610c2957600080fd5b50565b600081359050610c3b81610c15565b92915050565b600060208284031215610c5757610c56610bde565b5b6000610c6584828501610c2c565b91505092915050565b6000819050919050565b610c8181610c6e565b82525050565b6000602082019050610c9c6000830184610c78565b92915050565b6000819050919050565b6000610cc7610cc2610cbd84610be3565b610ca2565b610be3565b9050919050565b6000610cd982610cac565b9050919050565b6000610ceb82610cce565b9050919050565b610cfb81610ce0565b82525050565b6000602082019050610d166000830184610cf2565b92915050565b610d2581610c6e565b8114610d3057600080fd5b50565b600081359050610d4281610d1c565b92915050565b600060208284031215610d5e57610d5d610bde565b5b6000610d6c84828501610d33565b91505092915050565b610d7e81610c03565b82525050565b6000602082019050610d996000830184610d75565b92915050565b600082825260208201905092915050565b7f596f75206e65656420746f207370656e64206d6f726520455448210000000000600082015250565b6000610de6601b83610d9f565b9150610df182610db0565b602082019050919050565b60006020820190508181036000830152610e1581610dd9565b9050919050565b7f4e487b7100000000000000000000000000000000000000000000000000000000600052601160045260246000fd5b6000610e5682610c6e565b9150610e6183610c6e565b9250827fffffffffffffffffffffffffffffffffffffffffffffffffffffffffffffffff03821115610e9657610e95610e1c565b5b828201905092915050565b7f4e487b7100000000000000000000000000000000000000000000000000000000600052603260045260246000fd5b6000610edb82610c6e565b91507fffffffffffffffffffffffffffffffffffffffffffffffffffffffffffffffff821415610f0e57610f0d610e1c565b5b600182019050919050565b7f4e487b7100000000000000000000000000000000000000000000000000000000600052604160045260246000fd5b600081905092915050565b50565b6000610f63600083610f48565b9150610f6e82610f53565b600082019050919050565b6000610f8482610f56565b9150819050919050565b7f43616c6c206661696c6564000000000000000000000000000000000000000000600082015250565b6000610fc4600b83610d9f565b9150610fcf82610f8e565b602082019050919050565b60006020820190508181036000830152610ff381610fb7565b9050919050565b600061100582610c6e565b915061101083610c6e565b9250817fffffffffffffffffffffffffffffffffffffffffffffffffffffffffffffffff048311821515161561104957611048610e1c565b5b828202905092915050565b7f4e487b7100000000000000000000000000000000000000000000000000000000600052601260045260246000fd5b600061108e82610c6e565b915061109983610c6e565b9250826110a9576110a8611054565b5b828204905092915050565b600069ffffffffffffffffffff82169050919050565b6110d3816110b4565b81146110de57600080fd5b50565b6000815190506110f0816110ca565b92915050565b6000819050919050565b611109816110f6565b811461111457600080fd5b50565b60008151905061112681611100565b92915050565b60008151905061113b81610d1c565b92915050565b600080600080600060a0868803121561115d5761115c610bde565b5b600061116b888289016110e1565b955050602061117c88828901611117565b945050604061118d8882890161112c565b935050606061119e8882890161112c565b92505060806111af888289016110e1565b9150509295509295909350565b60006111c7826110f6565b91506111d2836110f6565b9250827f7fffffffffffffffffffffffffffffffffffffffffffffffffffffffffffffff048211600084136000841316161561121157611210610e1c565b5b817f8000000000000000000000000000000000000000000000000000000000000000058312600084126000841316161561124e5761124d610e1c565b5b827f8000000000000000000000000000000000000000000000000000000000000000058212600084136000841216161561128b5761128a610e1c565b5b827f7fffffffffffffffffffffffffffffffffffffffffffffffffffffffffffffff05821260008412600084121616156112c8576112c7610e1c565b5b82820290509291505056fea26469706673582212209fa2bf9fb6a54bdebe5a848ffaafd1e1f2b349fa107572d1c88ae207af939bb464736f6c63430008080033",
  "devdoc": {
    "author": "Ugo Krollak",
    "details": "This implements price feed as our library",
    "kind": "dev",
    "methods": {
      "fund()": {
        "details": "This implements price feed as our library"
      }
    },
    "title": "A contract for crowd funding",
    "version": 1
  },
  "userdoc": {
    "kind": "user",
    "methods": {
      "fund()": {
        "notice": "This function funds this contract"
      }
    },
    "notice": "This contract is to demo a sample funding contract",
    "version": 1
  },
  "storageLayout": {
    "storage": [
      {
        "astId": 59,
        "contract": "contracts/FundMe.sol:FundMe",
        "label": "s_addressToAmountFunded",
        "offset": 0,
        "slot": "0",
        "type": "t_mapping(t_address,t_uint256)"
      },
      {
        "astId": 62,
        "contract": "contracts/FundMe.sol:FundMe",
        "label": "s_funders",
        "offset": 0,
        "slot": "1",
        "type": "t_array(t_address)dyn_storage"
      },
      {
        "astId": 74,
        "contract": "contracts/FundMe.sol:FundMe",
        "label": "s_priceFeed",
        "offset": 0,
        "slot": "2",
        "type": "t_contract(AggregatorV3Interface)45"
      }
    ],
    "types": {
      "t_address": {
        "encoding": "inplace",
        "label": "address",
        "numberOfBytes": "20"
      },
      "t_array(t_address)dyn_storage": {
        "base": "t_address",
        "encoding": "dynamic_array",
        "label": "address[]",
        "numberOfBytes": "32"
      },
      "t_contract(AggregatorV3Interface)45": {
        "encoding": "inplace",
        "label": "contract AggregatorV3Interface",
        "numberOfBytes": "20"
      },
      "t_mapping(t_address,t_uint256)": {
        "encoding": "mapping",
        "key": "t_address",
        "label": "mapping(address => uint256)",
        "numberOfBytes": "32",
        "value": "t_uint256"
      },
      "t_uint256": {
        "encoding": "inplace",
        "label": "uint256",
        "numberOfBytes": "32"
      }
    }
  }
}